:020000040800F2
:1000000080060020AD030008ED030008EF030008A0
:10001000F3030008F7030008FB03000800000000DA
:10002000000000000000000000000000FF030008C6
:100030000104000800000000030400080504000893
:10004000C7030008C7030008C7030008C703000868
:10005000C7030008C7030008C7030008C703000858
:10006000C7030008C7030008C7030008C703000848
:10007000C7030008C7030008C7030008C703000838
:10008000C7030008C7030008C7030008C703000828
:10009000C7030008C7030008C7030008C703000818
:1000A000C7030008C7030008C7030008C703000808
:1000B000C7030008C7030008C7030008C7030008F8
:1000C000C7030008C7030008C7030008C7030008E8
:1000D000C7030008170A0008C7030008C703000881
:1000E000C7030008C7030008C7030008C7030008C8
:1000F000C7030008C7030008C7030008C7030008B8
:10010000C7030008C7030008C7030008C7030008A7
:10011000C7030008C7030008C7030008C703000897
:10012000C7030008C7030008C7030008C703000887
:1001300000F002F800F03AF80AA090E8000C8244BF
:100140008344AAF10107DA4501D100F02FF8AFF29C
:10015000090EBAE80F0013F0010F18BFFB1A43F0A5
:1001600001031847D4C90400F4C90400103A24BF9D
:1001700078C878C1FAD8520724BF30C830C144BF0C
:1001800004680C607047000000230024002500264E
:10019000103A28BF78C1FBD8520728BF30C148BFEA
:1001A0000B6070471FB51FBD10B510BD01F0E9F918
:1001B0001146FFF7F7FF00F02DF901F007FA03B43D
:1001C000FFF7F2FF03BC00F0CBFB00000CB50020F2
:1001D000019000906C48006840F480306A490860E3
:1001E00000BF6948006800F4003000900198401C8E
:1001F0000190009818B90198B0F5A06FF1D162484C
:10020000006800F4003010B10120009001E00020EF
:1002100000900098012843D15C48006840F010002D
:100220005A4908600846006820F003000860084644
:10023000006840F002000860534840685249486036
:100240000846406848600846406840F4806048605E
:100250000846406820F47C1048600846406840F436
:10026000E81048600846006840F08070086000BFF1
:100270004548006800F000700028F9D04248406806
:1002800020F00300404948600846406840F0020002
:10029000486000BF3C48406800F00C000828F9D1D5
:1002A0000CBD10B5FFF792FF10BD10B536480068C1
:1002B00040F001003449086008464068344908406D
:1002C0003149486008460068324908402E490860B4
:1002D0000846006820F4802008600846406820F442
:1002E000FE0048604FF41F008860FFF7DAFF4FF010
:1002F00000602949086010BD10B5002100200022CF
:10030000214B5B6803F00C0121B1042906D00829B8
:1003100028D107E0214B224C236027E01F4B204CC3
:10032000236023E0184B5B6803F47010164B5B6886
:1003300003F48032022303EB904022B9194B43436C
:10034000174C23600DE0104B5B6803F4003323B1BE
:10035000144B4343124C236003E0104B4343104CB7
:10036000236003E00D4B0E4C236000BF00BF064B23
:100370005B68C3F303130C4CE15C094B1B68CB4077
:10038000074C236010BD0000001002400020024016
:100390000000FFF8FFFFF6FE08ED00E000127A0013
:1003A0000000002000093D000400002009488047AB
:1003B00009480047FEE7FEE7FEE7FEE7FEE7FEE747
:1003C000FEE7FEE7FEE7FEE704480549054A064B5F
:1003D00070470000AB0200083101000880000020D7
:1003E000800600208002002080020020704700BFAD
:1003F000FEE700BFFEE700BFFEE700BFFEE7704775
:10040000704770477047000000BF011EA0F1010057
:10041000FBD1704708B500F0C7FB00F021F800F0F1
:10042000BFF800F009F900F06BF84FF4165000F037
:10043000E1F900F097FA4FF4E13000F003FB00F02F
:1004400059FE09E005484FF4F0734FF4A072002103
:100450000090084601F037F8F4E700002E1B000872
:100460004B48806940F04C00494988614948006820
:1004700020F47000474908600846006840F44010C6
:1004800008600846006820F0706008600846006850
:1004900040F0407008604048006820F470003E4919
:1004A00008600846006840F4401008603B48006857
:1004B00020F47000394908600846006840F4401094
:1004C0000860704734480C30006820F02000324942
:1004D0000C31086031480C30006820F020002F49B2
:1004E0000C3108602B480C30006820F020002949AE
:1004F0000C3108600846006820F040000860704732
:1005000025480C30006840F0200023490C31086079
:1005100022480C30006840F0200020490C3108606F
:100520001C480C30006840F020001A490C3108606B
:100530000846006840F040000860704710B524E0AD
:10054000FFF7C0FF4FF47A7000F03CFBFFF7D8FFD5
:100550004FF47A7000F036FB0E480830006800F067
:10056000010088B10D480830006800F0040058B957
:100570000A480830006800F0080028B10748083031
:10058000006800F0100000B900E0D9E700BF10BD1E
:100590000010024000080140000C0140001801401A
:1005A0002148806940F008001F4988611F480068A1
:1005B00020F00F001D4908600846006840F0030065
:1005C0000860704710B52CE018480830006840F407
:1005D00080701649083108604FF47A7000F0F2FA22
:1005E00012480830006820F4807010490831086013
:1005F0004FF47A7000F0E6FA0D48006800F0010050
:1006000070B10C48006800F0040048B9094800685F
:1006100000F0080020B10748006800F0100000B9A1
:1006200000E0D1E700BF10BD00100240040C014003
:1006300008080140081801406A48806940F04400F9
:10064000684988616848006820F00F0066490860C2
:100650000846006840F0040008606448006820F420
:100660007060624908600846006840F48060086075
:100670000846006820F4704008600846006840F4AE
:10068000804008600846006820F470200860084632
:10069000006840F480200860704710B55248083068
:1006A000006800F0010050B90A2000F08BFA4E48B3
:1006B0000830006800F0010008B9012010BD4B4867
:1006C0000830006800F0040050B10A2000F07AFA07
:1006D00046480830006800F0040008B10220EDE749
:1006E00042480830006800F0080050B90A2000F0C5
:1006F00069FA3E480830006800F0080008B9032095
:10070000DCE73A480830006800F0100050B90A20D1
:1007100000F058FA35480830006800F0100008B9B9
:100720000420CBE700BFC9E710B5314800680128B5
:100730003AD12D480830006800F0010088B12B48FC
:100740000830006800F0040058B9284808300068F4
:1007500000F0080028B125480830006800F01000BB
:1007600010BB0A2000F02EFA1F480830006800F085
:10077000010008B9012010BD1C480830006800F0D5
:10078000040008B10220F6E718480830006800F0BD
:10079000080008B90320EEE714480830006800F0AC
:1007A0001000E0B90420E6E70F480830006800F0C8
:1007B0000100A0B10D480830006800F0040070B9D5
:1007C0000A480830006800F0080040B107480830C7
:1007D000006800F0100010B100200549086000BF5B
:1007E000C9E7000000100240000801400018014065
:1007F000140000202DE9F04704468B48806940F042
:100800000400894988618948006820F0F000874920
:1008100008600846006840F0B000086008460068BC
:1008200020F4706008600846006840F400600860CA
:100830007E480830006840F480607C4908310860D8
:100840007948806940F4804077498861200101F04F
:100850000BF880464146764800F028FF05462846BA
:1008600000F0E6FF0646304600F0FEFF82462946CD
:1008700001F0DEF881464FF0834101F00DF880462B
:1008800000F0D6FF074647EA06106A490880081DAF
:10089000008820F48060091D08800846008840F028
:1008A000080008800846008840F0040008800846D8
:1008B000008820F0010008800846008840F40050BD
:1008C0000880BDE8F08700BF5A490839098801F05F
:1008D00040010029F8D05749091F0880704700BF20
:1008E00054490839098801F020010029F8D05149FC
:1008F000091F0988C8B2704700B5024603E01078A6
:10090000FFF7E1FF521C10780028F8D10D20FFF707
:10091000DAFF0A20FFF7D7FF00BD00B5024608E066
:10092000FFF7DDFF0A2801D00D2800D102E010708A
:10093000521CF5E700BF0021117000BD00B5024652
:100940000B46D0B2FFF7BFFF104600BD01464FF087
:10095000FF30704700B50246D0B2FFF7B4FF00BDCC
:1009600000BFFEE7F0B53348001D008840F02000CE
:100970003049091D0880052003462F4C21684FF699
:10098000FF0421402D4C0C4344EA03212A4C2160F2
:1009900000BF002303240146C1F10707042F01D93A
:1009A000042701E0C1F107073E460F1D072F01D2C2
:1009B000002700E0CF1E3D460127B7407F1E1F40A5
:1009C000AF404FF0010C0CFA05FCACF1010C0CEA45
:1009D000040C47EA0C0200BF25211046002908DA62
:1009E00003071D0E144B0C3301F00F04241F1D557B
:1009F00003E003071C0E124B5C5400BF252000F0DF
:100A00001F030121994043099B0003F1E023C3F830
:100A1000001100BFF0BD00B50648001F0088C2B23B
:100A20001046FFF750FF00BD0010024004080140CF
:100A30004054894C083801400CED00E00000FA05F4
:100A400000E400E02DE9F04704465248806940F098
:100A50000400504988615048006820F470604E4995
:100A600008600846006840F4306008600846006886
:100A700020F4704008600846006840F400400860B8
:100A800045480C30006840F0080043490C310860CC
:100A90004048C06940F400303E49C861200100F080
:100AA000E3FE804641463D4800F000FE05462846EC
:100AB00000F0BEFE0646304600F0D6FE82462946CD
:100AC00000F0B6FF81464FF0834100F0E5FE80461E
:100AD00000F0AEFE074647EA061031490880081DBF
:100AE000008820F48060091D08802E48008840F0AE
:100AF00008002C4908802A48001D008840F00400A6
:100B00002749091D08800846008820F00100088058
:100B10000846008840F400500880BDE8F08700BF18
:100B20001F490839098801F040010029F8D01C4903
:100B3000091F0880704700BF19490839098801F06A
:100B400020010029F8D01649091F0988C8B270474A
:100B500000B5024603E01078FFF7E1FF521C107861
:100B60000028F8D10D20FFF7DAFF0A20FFF7D7FFA2
:100B700000BD00B5024608E0FFF7DDFF0A2801D0FE
:100B80000D2800D102E01070521CF5E700BF0021D3
:100B9000117000BD00100240000801404054094C93
:100BA000084400400C3801404FF0E020006920F07C
:100BB00002004FF0E02108610846006920F00400BF
:100BC000086170471D49098841434FF0E022516197
:100BD000002191611146096941F00101116100BFD5
:100BE0004FF0E021096901F480310029F8D04FF07D
:100BF000E021096921F001014FF0E0221161704705
:100C00000F49097841434FF0E02251610021916181
:100C10001146096941F00101116100BF4FF0E02167
:100C2000096901F480310029F8D04FF0E021096909
:100C300021F001014FF0E0221161704718000020FF
:100C40001A000020FD48806940F02000FB498861BF
:100C50000846806940F0400088610846806940F499
:100C6000807088610846806940F008008861F44817
:100C7000006820F07F40F24908600846006840F0B4
:100C80004C500860081F006820F0FF00091F086032
:100C90000846006840F033000860EA48006820F029
:100CA0007040E84908600846006840F0405008601D
:100CB000081D00680020091D08600846006840F013
:100CC00033300860DE4800686FF30B00DC490860D1
:100CD0000846006840F233310843D9490860081FCC
:100CE000006820F47F00091F08600846006840F48F
:100CF00088100860D2480830006840F03000D049C1
:100D000008310860D048406820F47020CE4948601F
:100D10000846406840F4803048600846C06840F4A7
:100D20008050C8600846006820F00F000860084640
:100D3000006840F0010008600846C06840F001000B
:100D4000C860C248006820F00F00C049086008462B
:100D5000006840F002000860BC480C30006820F0D9
:100D60000100BA490C310860704700F0010141B13F
:100D7000B3490C31096841F48041B14A0C32116029
:100D800007E0AF491031096841F48041AC4A1032A4
:100D9000116000F0020141B1A9490C31096841F428
:100DA0000041A74A0C32116007E0A54910310968DB
:100DB00041F40041A24A1032116000F0040141B137
:100DC0009F490C31096841F001019D4A0C321160C4
:100DD00007E09B491031096841F00101984A10323F
:100DE000116000F0080141B195490C31096841F0EA
:100DF0000201934A0C32116007E0914910310968F1
:100E000041F002018E4A1032116000F0100141B130
:100E10008C491031096841F080018A4A1032116012
:100E200007E088491431096841F08001854A14328D
:100E3000116000F0200141B182491031096841F48C
:100E40008071804A1032116007E07E4914310968D0
:100E500041F480717B4A1432116000F0400141B1CD
:100E600078491031096841F40071764A10321160F6
:100E700007E074491431096841F40071714A143271
:100E8000116000F0800141B16E491031096841F4F0
:100E900080616C4A1032116007E06A4914310968B8
:100EA00041F48061674A1432116000F4807141B1ED
:100EB00064491031096841F40061624A10321160DE
:100EC00007E060491431096841F400615D4A143259
:100ED000116000F4007141B15A491031096841F4C0
:100EE0008051584A1032116007E0564914310968A0
:100EF00041F48051534A1432116000F4806141B1D1
:100F000050491031096841F400514E4A10321160C5
:100F100007E04C491431096841F40051494A143240
:100F2000116000F4006141B146491031096841F493
:100F30008041444A1032116007E042491431096887
:100F400041F480413F4A1432116000F4805141B1B4
:100F50003C491031096841F400413A4A10321160AD
:100F600007E038491431096841F40041354A143228
:100F7000116000F4005141B131490C31096841F46C
:100F800080712F4A0C32116007E02D491031096839
:100F900041F480712A4A1032116000F4804141B15D
:100FA00027490C31096841F40071254A0C3211605F
:100FB00007E023491031096841F40071204A1032DA
:100FC000116000F4004141B11D490C31096841F440
:100FD00080611B4A0C32116007E019491031096821
:100FE00041F48061164A10321160704700B5034623
:100FF0001548C06820F001001349C8600846C06861
:1010000020F48050C8600E480830006820F02000AE
:101010000B49083108601846FFF7A7FE084808305A
:10102000006840F020000649083108600648C068A2
:1010300040F480500449C86000BD00000010024028
:10104000041401400018014000200140000C014040
:1010500000B50346FE48C06840F00100FC49C86086
:101060000846C06820F48050C860FA48006820F044
:101070002000F84908601846FFF777FEF548006839
:1010800040F02000F3490860F148C06840F4805007
:10109000EF49C86000BD30B505462A20FFF7A6FF1E
:1010A0000020FFF7D5FF0020FFF7D2FF0120FFF758
:1010B000CFFF40F23F10FFF7CBFF2B20FFF796FF4B
:1010C0000020FFF7C5FF0020FFF7C2FF0120FFF758
:1010D000BFFF40F2DF10FFF7BBFF2C20FFF786FFBA
:1010E000002403E02846FFF7B3FF641CB4F5163F65
:1010F000F8D330BD10B5FFF7A5FDCF20FFF776FF81
:101100000020FFF7A5FF8320FFF7A2FF3020FFF7A5
:101110009FFFED20FFF76AFF6420FFF799FF032090
:10112000FFF796FF1220FFF793FF8120FFF790FF54
:10113000E820FFF75BFF8520FFF78AFF0120FFF71C
:1011400087FF7920FFF784FFCB20FFF74FFF39207F
:10115000FFF77EFF2C20FFF77BFF0020FFF778FFD3
:101160003420FFF775FF0220FFF772FFF720FFF72B
:101170003DFF2020FFF76CFFEA20FFF737FF00203C
:10118000FFF766FF0020FFF763FFC020FFF72EFF89
:101190001D20FFF75DFFC120FFF728FF1120FFF79B
:1011A00057FFC520FFF722FF3320FFF751FF342000
:1011B000FFF74EFFC720FFF719FFBE20FFF748FFDC
:1011C0003620FFF713FF0020FFF742FFB120FFF7A3
:1011D0000DFF0020FFF73CFF1B20FFF739FFB62073
:1011E000FFF704FF0A20FFF733FFA220FFF730FFCD
:1011F000F220FFF7FBFE0020FFF72AFF2620FFF773
:10120000F5FE0120FFF724FFE020FFF7EFFE0F209F
:10121000FFF71EFF2320FFF71BFF1F20FFF718FF1C
:101220000920FFF715FF0F20FFF712FF0820FFF737
:101230000FFF4B20FFF70CFFF220FFF709FF3820CC
:10124000FFF706FF0920FFF703FF1320FFF700FF5A
:101250000320FFF7FDFE1220FFF7FAFE0720FFF73D
:10126000F7FE0420FFF7F4FEE120FFF7BFFE0020A9
:10127000FFF7EEFE1D20FFF7EBFE2020FFF7E8FE54
:101280000220FFF7E5FE1120FFF7E2FE0720FFF73F
:10129000DFFE3420FFF7DCFE8120FFF7D9FE462079
:1012A000FFF7D6FE0620FFF7D3FE0E20FFF7D0FE95
:1012B0000C20FFF7CDFE3220FFF7CAFE3820FFF7E3
:1012C000C7FE0F20FFF7C4FE3A20FFF78FFE552020
:1012D000FFF7BEFE1120FFF789FE7820FFF772FCB2
:1012E0002920FFF783FE4FF6FF70FFF7D4FE5A4820
:1012F000006840F001005849086010BD70B505460F
:101300000C4616462A20FFF771FE2812FFF7A0FEB2
:101310002846FFF79DFE2812FFF79AFE2846FFF7A2
:1013200097FE2B20FFF762FE2012FFF791FE20466A
:10133000FFF78EFE2012FFF78BFE2046FFF788FE98
:101340002C20FFF753FE3046FFF782FE70BD2DE9DB
:10135000F04F05460C4690469946DDF824A02A2019
:10136000FFF744FE2812FFF773FE2846FFF770FED2
:1013700005F10F010812FFF76BFE05F10F0188B2AE
:10138000FFF766FE2B20FFF731FE2012FFF760FE0D
:101390002046FFF75DFE04F10F010812FFF758FE2B
:1013A00004F10F0188B2FFF753FE2C20FFF71EFE59
:1013B00000261CE07000401C1AF800001AF81610F5
:1013C00040EA012B00270EE04FF40040384100EACC
:1013D0000B0018B14046FFF73BFE02E04846FFF71E
:1013E00037FE781CC7B2102FEEDB701CC6B2102E71
:1013F000E0DBBDE8F08F2DE9F04F06460C46914644
:101400009A46099F2A20FFF7F1FD3012FFF720FED0
:101410003046FFF71DFE06F117010812FFF718FE10
:1014200006F1170188B2FFF713FE2B20FFF7DEFD50
:101430002012FFF70DFE2046FFF70AFE04F1170108
:101440000812FFF705FE04F1170188B206E000005C
:10145000002001400C1401400C0C0140FFF7F8FD86
:101460002C20FFF7C3FD002529E005EB4500385C83
:10147000010405EB4500401C385C41EA002005EB07
:101480004501891C795C40EA010B4FF0000811E02E
:101490004FF4000040FA08F000EA0B0018B148468B
:1014A000FFF7D6FD02E05046FFF7D2FD08F101003C
:1014B00000F0FF08B8F1180FEADB681CC5B2182D60
:1014C000D3DBBDE8F08F2DE9F04F07460E461446FA
:1014D0009846DDF824A02A20FFF788FD3812FFF790
:1014E000B7FD3846FFF7B4FD3919491EC1F30F2087
:1014F000FFF7AEFD3919491E88B2FFF7A9FD2B2071
:10150000FFF774FD3012FFF7A3FD3046FFF7A0FD93
:1015100006EB0801491EC1F30F20FFF799FD06EB0A
:101520000801491E88B2FFF793FD2C20FFF75EFDEE
:101530004FF000091DE0002515E0600000FB09F0F8
:1015400000EB45001AF80010600000FB09F000EB0A
:101550004500401C1AF8000041EA002B5846FFF7EE
:1015600077FD681C85B2A542E7DB09F101001FFA8F
:1015700080F9C145DFDBBDE8F08F704770477047E9
:101580007047754600F02CF8AE4605006946534694
:1015900020F00700854618B020B5FEF715FFBDE81E
:1015A00020404FF000064FF000074FF000084FF0CA
:1015B000000B21F00701AC46ACE8C009ACE8C0095B
:1015C000ACE8C009ACE8C0098D46704710B50446C8
:1015D000AFF300802046BDE81040FEF7F0BD0000EC
:1015E000004870471C00002090EA010F48BF81F0BE
:1015F000004100F12E82421A3CBF801A89184FEA3E
:10160000D0524FF07F4C1CEA410FA2EBD15318BFD0
:101610009CEA026F00F03B804FF0004C4CEA002047
:101620004CEA012121FA03FC10EB0C0C1ED202F152
:10163000FF325FEA1C2040EBC25038BF70471CF0FD
:101640007F0F4FEA400C18BFBCF17F4F38BF704787
:10165000C3F12003994008BF20F00100BCF17F4F87
:1016600038BF7047A0F1C04000F0DDB94FEA3C0040
:10167000000A40EBC25028BF1CF0FF0F4FEA400C9D
:10168000E6D018BFBCF17F4F38BF7047EAE79CEA4D
:10169000026F05D010EA5C0F08BF00F000407047F1
:1016A00010B500F07AF900BF64FBBE3E4FF47F0C2A
:1016B0001CEAD0121EBF1CEAD11392EA0C0F93EA67
:1016C0000C0F00F0858090EA010F48BF42F4807251
:1016D00040F4000C41F400002CF07F4120F07F40EA
:1016E00000B58142A2EB03020FF2081CACEB504E96
:1016F000C0F100009EF800E04FEA4E0E00FB0EFC29
:1017000038BF49004FEA2C1C02F5FA020CFB0EF31D
:101710004FEACE1E4FEA112C4FEAC1210EEB635E59
:1017200042EB22420EFB0CFC4FEA1C5300FB031160
:101730004FEA112C4FEA01310EFB0CFC4FEADC4C56
:1017400000FB0C11C14228BF09184CEB03335DF8B4
:1017500004EB10EB410143EBC250B2F57C0F38BFF4
:10176000704729D512F0F00F1CBF00F1C04000F007
:1017700000407047008182838485868788898B8CAE
:101780008D8E8F919293959697999A9C9D9FA0A2EA
:10179000A3A5A7A8AAACAEB0B2B3B5B7B9BCBEC03A
:1017A000C2C5C7C9CCCED1D4D7D9DCDFE2E6E9ECDB
:1017B000F0F3F7FAFE0000004FEA400C0CF1807CD9
:1017C000BCF17E4F28BF7047B0F1C04000F02BB98C
:1017D00090EA010F0CEAD11348BF42F480726245CF
:1017E00038BF634507D213F47F0F16D080EA01009B
:1017F00000F00040704710B500F0CFF8097EFC3EC5
:1018000000F005B880EA010000F00040704780EA6F
:10181000010000F0004000F006B912F47F0F04BF91
:101820000248704780EA010000F0FDB80000C07F68
:1018300041000B0ED3F19E0208D950F400034FEA89
:10184000032323FA02F048BF4042704710B500F06E
:10185000A4F800BF49922480002070476FF0004236
:1018600082EA20007047000010F0004148BF40426B
:10187000B0FA80F310FA03F2C3F19D030BD051EAE2
:10188000C35101EB1220530638BF704700F101002D
:1018900008BF20F0010070474FF47F0C1CEAD01203
:1018A0001EBF1CEAD11392EA0C0F93EA0C0F00F052
:1018B000478090EA010F48BF42F480724FF0004C1D
:1018C0004CEA00204CEA012102EB0302A0FB0113C9
:1018D000A2F50002002918BF43F001035B0028BFF6
:1018E0004FEA330342EB22425FEA132C4CEBC25027
:1018F0002EBFBCEB436FB2F57C0F70474FEA036C11
:10190000BCF1004F08BF20F00100B2F57C0F38BFDA
:1019100070470BD582F0FF0212F5803FC8BF7047B9
:1019200000F1C040D8BF00F00040704700F5000C47
:101930005FEA4C0C48BF7047B0F1C04000F073B88C
:1019400090EA010F0CEAD11348BF42F4807262455D
:1019500038BF634504D280EA010000F000407047C0
:1019600010B500F01AF800BF8900013E00F007B87A
:1019700000F009B85FEA410C5FEA1C6C08D080EA0D
:10198000010000F050B85FEA400C5FEA1C6CF6D131
:101990004FF00040A0F5800070470EF1020E2EF0CF
:1019A000030E5EF8044B244204D44FEA4102B2F124
:1019B0007F4F11D84FEA4003B3F17F4F0CD80ED1BF
:1019C0004FEAD07CB2F17F4F0CEB4C0C0CF1020CC7
:1019D00008BF4CEBD17C04E04FF0080C01E04FEA6B
:1019E000D17C0CEB4C0324FA03F404F00704B4F1AB
:1019F000040C06D20EEB840CBDE810404CF0010C38
:101A00006047DFE80CF0070802024FF00040A0F545
:101A1000800010BD0846420018BFD2F1807288BF16
:101A200000F0004010BDFF2141EAD050C0057047D2
:101A300080F0004090EA010F7FF5DDAD81F00041BC
:101A400000F007B890EA010F48BF81F000413FF570
:101A5000D2AD421A04D882F00042A0EB0200114439
:101A60004FEAD0524FF07F4C1CEA410FA2EBD1530A
:101A700018BF9CEA026F4AD04FF0004C4CEA00209D
:101A80004CEA012121FA03FCB0EB0C0C0FD412F04C
:101A9000FE0F36D05FEA4C001DD5001240EBC2505D
:101AA00038BF70471CF03F0F18BF70470BE0A2F122
:101AB00001025FEA1C2040EBC25038BF70471CF0A7
:101AC0007F0F18BF7047C3F12003994014BF401E19
:101AD00020F00100704780084FEA122308BF7047CA
:101AE000B0FA80FCA2EB0C02CCF1280C60FA0CF0EE
:101AF00093EA122F04BF00EBC25070474FEAC37045
:101B00007047130A5FEADC1008BF7047F6E79CEAEB
:101B1000026F04D010EA5C0F08BF0020704710B5B8
:101B2000FFF73BFF40DFF63E81F0004070470010BA
:101B30004001E001011B0000000000000000000067
:101B40000000000000002000000000000000000075
:101B50000000000000000000000000000000000085
:101B60000000000000000000000000000000000075
:101B70000000000000000000010001000100010061
:101B8000010001002100210021002100210021008D
:101B900041004100410021002100210021002100DD
:101BA0004100410021004108410041004100410045
:101BB000410841084108410841084108620862089B
:101BC0006208620862086208620862088208820885
:101BD00081088108810861086108610841084000A6
:101BE0004000410041082000610841082000200019
:101BF00041082000200041082100010000000000F1
:101C0000000000002100210021000100210021002E
:101C10002100210020002100200041086108620805
:101C200061084108210021004108A21082106208C9
:101C300082106208821082106208821061086208B5
:101C4000821062086208620862086208620862081C
:101C50006208610862086208620862086208620835
:101C60006208620862086208620861084108200090
:101C70000000000000002000400040002000400064
:101C800040002000400040004000400020002000B4
:101C900020004108410861084108410841086108E5
:101CA00041084108610820002000200000000000D9
:101CB000000000000000000000000000200061089B
:101CC0004108610820002000200041084108200050
:101CD0002000200020000000200041082842084287
:101CE0000842E739E739E739494AE739C739C73997
:101CF000C739E739494A494A0842E739E739E739F4
:101D0000E7390842084208420842084208420842AD
:101D10000842084208422842084208420842084253
:101D200008420842284228422842284228420842C3
:101D30000842084208420842084208420842084253
:101D4000E739E739E739284208420842E739E739F5
:101D5000C739C739C739A631C739C739A631A631FE
:101D6000A631A6318631A631A631C739C739A63189
:101D7000A631A631A631A631A631A6318631652914
:101D8000652965296529452965294529242145298C
:101D9000863186314529242124212421042104214E
:101DA00004210421042124214529E31841080000CD
:101DB000200041082000000000000000000000009A
:101DC0000000000000000000000000000000000013
:101DD0000000000000000000000000000000000003
:101DE0000000000000000000200020002000200073
:101DF00020002000210021002100210021002100DD
:101E000021002100210021002100210021002100CA
:101E100041004100410041004108410841004100AA
:101E2000410841084108410841084100410041087A
:101E30004108410841084108410841086208620818
:101E40006208620862086208620882088208610803
:101E500061086108610861086108410840002000CC
:101E600020004100410800004100400020006108BE
:101E7000C3188210000020000000000000000000D5
:101E80000000000001000000000000000000000051
:101E90000000000000000000000000000000000042
:101EA0000000000000002000210000008210A310AC
:101EB000A318A3108210410861088210C318821071
:101EC00062088208A3108210620862086208620831
:101ED00062086208620862086208620862086208B2
:101EE00062086208620862086208620862084108C3
:101EF0004100200020002000400020002000400081
:101F00004000200040004000200020002000200071
:101F1000400841082000200000002000410861081E
:101F200061086108610841086108410841084108E9
:101F30004108410820002000200041086108610894
:101F4000610861084108410820004108410820005B
:101F5000000000000000000020004108A6316529B3
:101F600065296529863186318631A631C739C73959
:101F7000A6318631A631A6318631A631C739C73997
:101F8000C739E739C739E739E739E739E739C739B1
:101F9000C739C739C739C739C739E739E739C73901
:101FA000C739A631A631C739A631A631A631A63127
:101FB0008631863186316529652965296529652936
:101FC0004529452945294529452945294529652981
:101FD00065296529652965296529652945294529D1
:101FE0004529452924212421242124212421242177
:101FF00024212421242145294529452945294529EC
:1020000045294529452965294529242124212421BB
:10201000E318E318C318C318C31824214529452918
:1020200045292421242124214529E31841082000A1
:102030002000410820000000000000000000000017
:102040000000000000000000000000000000000090
:1020500000000000200000002000200020002000E0
:102060000000200020002000200020002000200090
:102070002100210021002100210021002100210058
:102080002100210021002100210021002100410028
:102090004100410041084108410841084108410808
:1020A00041084108410841084108410041004108F8
:1020B0004108410841086108610862086208620835
:1020C0006208620882086208820882108208610839
:1020D0006108610861086108410840002000200093
:1020E0002000400041080000200020002000821055
:1020F000652908420842284208420842084228420C
:102100000842084229426A4A6A4A694A694A694A4F
:10211000494A494A494A694A694A694A2842084239
:10212000C739A63166290421A21041080000200009
:1021300041086208821082108210410862088210F1
:102140008210A31062088210821082108210821006
:10215000820862086208620862086208620862080F
:102160006208620862084108410862086208820841
:1021700062084100200020002000200020004000D4
:102180002000200020004000200000002000410826
:102190006108410820000000000000002000410804
:1021A0004108410841084108610861088210821015
:1021B000821061084108410841086108610861080E
:1021C0008210610841084108200020002000200002
:1021D000000020000000200041080000A2100000C4
:1021E00000000000000020000000000000000000CF
:1021F00000000000000000000000000000000000DF
:1022000000000000000000000000000000000000CE
:1022100000000000000000000000000000000000BE
:1022200000000000000000000000000000000000AE
:10223000000000000000000000000000000000009E
:10224000000000000000000000000000000000008E
:10225000000000000000000000000000000000007E
:10226000000000000000000000000000000000006E
:10227000000000000000000000000000000000005E
:10228000000000000000000000000000000000004E
:1022900000002000200020002000821004212421C2
:1022A00024212421042145294529C318410820005F
:1022B0004108410841080000000000000000000043
:1022C000000000000000000000000000000000000E
:1022D000000020002000200020002000200020001E
:1022E00020002000200020002000200020002000EE
:1022F00021002100210021002100210021082108C6
:10230000210821082100410041004100410041080D
:102310004108410841084108410841084108410875
:1023200061086108610862084108410841084108E4
:102330006208620841086108610862086208820850
:10234000820882088210820882108210821082081D
:102350008108810881086108410840004000200090
:102360002000200041082000000000002000E318A9
:10237000E739694A2842694A694A694A694A8A5278
:10238000694A6A4A8A526A4A694A6A4A694A694A89
:10239000494A494A694A494A8A52CB5ACB5A8A52CF
:1023A0006A4A8A52AA526A4A084208422421E31819
:1023B00061082100210041088210821082108210E1
:1023C0008210A3108210821082108210821082105C
:1023D000821082108208820862086208620862081D
:1023E00062086208620862084108410862088210B7
:1023F00082106108410020002000200020004000E1
:1024000020002000200020002000000020006108A3
:1024100061088210821061086108410820000000F4
:102420000000000020002000200041084108410871
:10243000410861086108410820004108410841083D
:10244000A21061086108410820002000200020003F
:102450002000200020002000410800008210200001
:10246000000000000000000020002000000000002C
:102470002000410820002000200020000000000073
:10248000000000000000000000000000000000004C
:10249000000000000000000000000000000000003C
:1024A00000000000200020002000200000000000AC
:1024B000000000000000000000000000000000001C
:1024C000000000000000000000000000000000000C
:1024D00000000000000000000000000000000000FC
:1024E00000000000000000000000000000000000EC
:1024F000000000000000200020000000000000009C
:1025000000000000000000000000000000000000CB
:102510000000410841082000000061080421242136
:1025200024212421242145292421A210410820000E
:1025300041084108200000000000000000000000E9
:10254000000000000000000000000000000000008B
:1025500000000000000020002000200020002000DB
:10256000200020002000200020002000200021006A
:102570002100210021002100210021002108410823
:102580002108210821084100410041084108410873
:1025900041084108410841084108410841086108D3
:1025A0006108610861086208410841084108620841
:1025B00062086208620862086108620862088208AC
:1025C00062088208821082108210821082108210AB
:1025D0008210821082088208610841084108400088
:1025E0002000200020000000410020000000A21078
:1025F0002842CB5A494A494A694A694A694A694A5A
:10260000694A694A89528A5289528A528952694A68
:10261000694A694A694A8A52494A08420842284234
:10262000694A6A4A6A4AAA52CB5ACB5AEC5A8A5227
:10263000C7394529C31861086108A210C318A3103F
:1026400082108210A31082108210821082108210D9
:102650008210821082108210821082088208620822
:1026600062088208820882086208410862086208DB
:10267000821082086108410820002000200020000C
:1026800020002000200020002000200040084108F9
:102690008210C318E3180421E318A2108210610805
:1026A00061084108410820002000000000000000EF
:1026B000200041086108821041082000200020000D
:1026C000A210821061084108200020002000200094
:1026D0002000200020002000410820008631A63183
:1026E000E739E739C739C7392842863161084108D7
:1026F000042108422842E7390842084208420842B9
:1027000008420842E73908420842084208420842A3
:102710000842284228420842084208422842084209
:10272000E739E739E739E739E739E739E739C739C9
:10273000C739E739E739C739C739C739E739E73919
:10274000E739C739C739E739E739E739C739C73909
:10275000C739A631A6318631863186318631863138
:10276000863186318631A631A631A631A631A63111
:1027700086318631A63186318631863165296529D3
:1027800065296529652986314529652965294529F0
:1027900045292421042161082000C31865296529E1
:1027A000652924212421652924218210200020006C
:1027B0002000410820000000000000000000000090
:1027C0000000000000000000000000000000000009
:1027D0000000000000000000000020002000200099
:1027E00020002000200020002000200020002000E9
:1027F00020002100210021002100210021084108A2
:102800004108410841084100410841084108410888
:102810004108410841084108410841084108610850
:10282000410861086108620862086208620862087B
:102830006208620862086208620862088208821000
:102840008208820882108208620862088208821068
:1028500082108210820882106108410841084000FD
:102860002000200020002000400000000000C318CD
:102870002842AA52E7392842284228422842484A98
:1028800028422842494A694A494A494A494A494AE2
:10289000494A494A694A694A694AAA52CB5ACB5AB3
:1028A0008A526A4A6A4A6A4A8A52AA52AB52EB5A16
:1028B000EC5ACB5A494AA631C31841082000610896
:1028C000A31082108210821082108210820882105F
:1028D0008210821082108210821082108208820878
:1028E0008208820882088210620862084108610832
:1028F0006208820882086108200020004000200051
:102900002000400020002000200020004008410856
:102910008210C3182421652945292421042104217A
:102920000421E318A2108210610841084108200028
:1029300020006108A210C3188210410800000000A6
:10294000610861086108410841082000200020005A
:10295000200020002000000020002000C739494A44
:10296000AA52694A284208428A52E739610820007F
:10297000C31828428A522842494A494A494A694A60
:10298000694A494A494A694A694A494A494A494A4F
:10299000494A494A494A494A494A494A494A494A9F
:1029A00028422842494A2842494A494A494A284233
:1029B0002842494A494A494A494A494A494A494AA8
:1029C000494A494A494A284228422842284228423C
:1029D0000842084208422842284208420842E73991
:1029E000E739E739E739C739E739E739E739E73907
:1029F000C739C739E739C739C739A631A631A63132
:102A0000C739C739C739A631A631A631A631A63193
:102A1000C739A631242141082000042186316529C7
:102A20004529242104216529042161082000200072
:102A3000200041082000000000000000000000000D
:102A40000000000000002000000000000000000066
:102A50000000000000000000000000000000000076
:102A60000000200020002000200020002000200086
:102A70002000200020002100210021002108410821
:102A800041084108410841084108410841084108FE
:102A900041084108410841084108410841084108EE
:102AA0004108410861086208620862086208620819
:102AB0006208620862088208620882088210821036
:102AC0008208820882106208620862088208821006
:102AD00082108210820862086108410821002000EB
:102AE0002000200020000000210000002100C31869
:102AF000E839AA52494A694A694A694A8952895257
:102B0000694A694A8952694A694A684A694A694A06
:102B1000694A694A694A694A694A694A8A528A52CB
:102B20008A52694A694A8A528A52CB5A694AAA52D7
:102B3000EB5AEB5AEB5AAA5208424529A2106108F7
:102B40008210821082088210821082086208820835
:102B50008210821082108210821082108208620815
:102B600062086208820862086208620862086208F5
:102B70006208610861086108200020004000200010
:102B800020004000200040002000200020004108DC
:102B90008210C3180421452945294529452965295D
:102BA0006529452924210421E318E318C318A2103C
:102BB0008210A210C3180421E31882102000000024
:102BC00020006108610841084108410841082000CF
:102BD00000002000000020000000000086310842B4
:102BE0002842E7398631E73928420842A2102000FE
:102BF000C318E739694A08420842084208420842B5
:102C000008420842284228422842284208420842F4
:102C10000842084208422842084208420842084244
:102C200028422842494A494A494A494A28420842D0
:102C3000084208422842E739E739E739E739E739F6
:102C4000E739C739C739A631C739C739C739C7398D
:102C5000C739E739E739C739C739C739A631A63186
:102C6000863186318631863186318631A63186318C
:102C70008631863186318631863165296529652917
:102C8000652965296529652965296529242145293D
:102C9000A6318631A210000000002421A63145296A
:102CA000452945292421863104216108200020007E
:102CB0004108410820000000000000000000000062
:102CC00000000000200020002000000000000000A4
:102CD0000000000000000000000020002000200094
:102CE00020002000200020002000200020002100E3
:102CF000210021002100210021002100210841089C
:102D0000410841084108410841084108410841087B
:102D1000410861086108410841084108410841082B
:102D20004108410861086208620862086208620896
:102D30006208620882086208620862086208620823
:102D400062086208620862086208620882088208F3
:102D500082088208620862084108210020002000E1
:102D60002100210020000000210000000000E418E4
:102D70002842CB5A2842694A694A694A694A894ABB
:102D8000694A694A895289528952894A89528952C3
:102D90008952A952AA52AA52AA528A52694A694A27
:102DA0008A52AA52AA52AA528A528A522C63CB5AE7
:102DB000694A494A8A52EB5A0C63CB5A494A452917
:102DC000610861088210821082108208620862081D
:102DD0008210821082108210821082108208620893
:102DE0006208620862086208820882108210820803
:102DF000620861086108410820002000410040008D
:102E00004000400020004008200000002000410851
:102E10008210A210E318042145296529452924219F
:102E2000452945294529652945294529452924213B
:102E3000E318E318042124212421E3186108200069
:102E40000000821061084108410841084108200043
:102E500000002000000020002000200086312842D1
:102E6000494A28420842494A0842494A042141083D
:102E7000C318A631494AC739E7390842084208420F
:102E80000842084228422842284228422842284232
:102E900028422842284228422842284228422842E2
:102EA00028422842284228422842284228422842D2
:102EB0002842284228422842084208422842284202
:102EC0002842084208420842084208420842084292
:102ED000E739E739E7390842E739E739E739E739C8
:102EE000E739E739E739E739E739C739C739C73942
:102EF000C739C739C739C739C739C739C739C739D2
:102F0000A631A6318631A6318631652965298631FB
:102F1000A6316529A210000020008631E739652915
:102F2000652945292421A631042161082000410892
:102F300041084108200000000000000000000000DF
:102F400000000000000020004108410820000000AF
:102F50000000000020002000000000000000200011
:102F60002000000000002000200020004108200078
:102F700021004108410841084108210001002100C9
:102F80004108410841086108610861086108410879
:102F9000410841084108000082108210620862085E
:102FA000620821006208410862088208620862081B
:102FB0006208820882086208820862086208620861
:102FC0008208821082088208821082108210821089
:102FD000820882108210821062084108410021009C
:102FE0002000000000002000620820000000E3181C
:102FF000494ACB5A694A694A694A894A694A694AC7
:10300000894A89528952894A8952895289528952F8
:103010008952895289528A528A528A528A528A52D3
:103020008A528A528A528A528A528A52694A8A52E9
:10303000CB5ACB5ACB5AAA528A52EB5A2C63CB5258
:10304000C631A21000008210C318A310821082089B
:103050008210821082108210821082086208620838
:1030600082088310831083108210821082108210D5
:1030700082108208620841080000200041004000E0
:103080004000200020004008400840084008410857
:103090008210A310C318A2108210A210C318E31844
:1030A000E318C318E31845292421242124214529A4
:1030B000452945290421E31824212421042141081C
:1030C00000006108610861084108410841082000CA
:1030D0002000200020004108821020008210284299
:1030E000494A494A2842E73908420842C739A210EA
:1030F0000000E318AA52694A494A28422842284255
:103100002842494A284228422842494A284228421D
:10311000494A494A2842494A494A494A494A494A40
:10312000494A494A2842494A2842284228422842D4
:103130002842284228422842494A494A494A494A9B
:10314000494A284228422842284228422842084226
:1031500008420842E7390842E739E739E739E739F1
:10316000E739C739A631A63186318631A631A63175
:10317000A63186318631A6318631C739C739A631A5
:103180008631C73986316529A631C739E318A6319A
:10319000E739042141082000A210A63186314529D3
:1031A00045298631A63165290421610820000000E7
:1031B000410861082000000000000000000000003D
:1031C000000000000000200041086108610841087B
:1031D00000000000000020000000000000000000CF
:1031E000000000002000200020002000000000005F
:1031F0000000210021004108410821082100210090
:103200004108410841084108410841084108410876
:1032100041004100410041088210620841086208F3
:103220008210410061086208620862086208620850
:1032300062086208620882088210820862086208D6
:1032400082108210821082108210821082108210EE
:10325000821082108210A2108208410841002100D1
:103260000000000000000000610820000000C318FA
:103270000842AB528A52AA52AA52AA52A952895261
:10328000895289528952AA52AA52AA52AA52A952C2
:10329000895289528952694A8A52AA52AA52AA521A
:1032A000AA52AA52CB5ACB5ACB5AEB5AAA52CB5A51
:1032B000AA52EB5AAA52CA5AAA52AA52EB5A0C6301
:1032C0000C6349422421200041088210C310A3103E
:1032D000620882088210A310A3108210820862087C
:1032E0008208821082108210821082108210821056
:1032F000821082106208410820002000410841002D
:1033000040002000200040084108400820004108FB
:103310006108610861084108200020002000410880
:1033200061084108200061086108A210A210A210E3
:10333000A210C318C318E31804212421E31841087C
:103340000000610861086108410841084108200047
:103350002000200000002000410800004108C7397B
:10336000494A494A28422842494A694A0842C318F8
:103370000000A2100842EB5AAA52AA528A528A525C
:103380008A528A528A528A528A528A528A528A525D
:103390008A528A528A52AA52AA52AA52AA528A52CD
:1033A0008A528A528A52694A694A694A694A694A0A
:1033B000494A494A494A494A494A494A494A494A75
:1033C000494A494A494A2842284228422842284232
:1033D000084208420842084228422842284208423D
:1033E000084208420842084208420842084208428D
:1033F0000842E739E739E73928420842A63165290A
:10340000A6310842A6318631A631C7392421E739D1
:10341000C739C31800002000E318A63165294529E3
:103420004529652986318631E318200000002000F7
:1034300041084108200000002000000000000000BA
:10344000000000002000410861088210821041083D
:1034500000000000000020002000200020002000CC
:1034600020004108410841084108200000000000F8
:10347000000000002000210021004108410841080F
:1034800041084108410821002100210021002100BC
:1034900021004100410062088210410021006208C1
:1034A000821041006208821062086208820882105D
:1034B000620862088208820882088208620862083C
:1034C000821082108210821082108210A310A3102A
:1034D000A310A310A310821062084108410021002C
:1034E00021002100210021004100000021000421D1
:1034F000494ACB5AAB52AA52AA52AA52AA52AA522B
:10350000AA52AA52AA52CA5ACA5ACA5AAA52AA5263
:10351000AA52CA5ACA5ACB5AAA528A52AA52CB5A49
:10352000EB5AEB5ACA5ACA5ACA5AEB5AEB5ACB5AF6
:10353000AA52CB5AAA52CA5ACB5AEB5ACB5A0B5B55
:103540006D6B2C63494AC31040006108A310A3109F
:1035500062088210A3108310A310831082108208C7
:1035600082108310831083106208820882108310F7
:103570008310821062084108200041004108410880
:10358000410840004000400840084008200020005A
:1035900041084108410820002000200000000000F0
:1035A0002000000000002000200020002000410832
:1035B00041088210821061088210A210821020003F
:1035C0002000610882106108610841082000200085
:1035D000200020002000200020002000200045299D
:1035E000494A694A084228420842694A694A4529C3
:1035F00061084108C31845290421E3180421242146
:103600002421242124212421242124212421242192
:103610002421242124212421242124212421242182
:1036200045294529452945292421242124212421CE
:103630002421242124212421242124212421242162
:103640002421242124212421242124212421042172
:103650000421042104210421042104210421042142
:1036600004210421E318E318E318E318E318E3182E
:10367000C318C318C318E318E318A210A210A210AD
:103680006529E739A631A631A631C7396529E73959
:1036900065296108200082108631C7398631652985
:1036A0006529652986318631A2100000200020009E
:1036B0002000000041080000200000000000000081
:1036C0000000000020006108821082108210821029
:1036D00041082000000000002000200041084108AF
:1036E0006108610882108210821061084108410857
:1036F00020000000000000002100410841084108AE
:10370000410841084108410021002000200020001C
:103710002100410841084100610841004108821030
:10372000A21041086208821082108208820882106A
:103730008210821082108208820882088208820821
:1037400082108210821082108210A310A310A31086
:10375000A310A310A3108210620841084108410081
:103760002100210041080000210021002100042146
:10377000294ACB5AAA52AA52AA52CB5ACA5AAA5278
:10378000CA5ACB5AEB5ACB5ACA5ACB5AAA52AA5245
:10379000CB5AEB5A0C630C632C632C632C630C63C5
:1037A000EB5AEB5AEB5AEB5ACB5ACA5AEB5A0B6309
:1037B000EB5ACB5ACA5ACB5A0B630B63CB5AAA5259
:1037C000CA5A2C634D6B694A242161084108821052
:1037D000C310A3108210A3108310831083108210D3
:1037E0008310831083108310831082108210831043
:1037F00082108208620841082100410841084108FE
:1038000041084000400841084008200020002000F6
:1038100041086108410841086108821061084108B7
:103820002000200020006108410820000000200046
:10383000410861082000200020004108410841089B
:103840006108821082106108610841084108200067
:103850002000200020002000200061082000E31844
:103860002842694A08420842C739494A8A52E73918
:10387000A21000000000410800000000000000004D
:103880000000000000000000000000000000000038
:103890000000000000000000000000000000000028
:1038A0000000000000000000000000000000000018
:1038B0000000000000000000000000000000000008
:1038C00000000000000000000000000000000000F8
:1038D00000000000000000000000000000000000E8
:1038E00000000000000000000000000000000000D8
:1038F00000000000000000000000000000000000C8
:10390000C318A631C739A631A631C739A631A631A9
:10391000E31820004108E318E739C73986318631BA
:1039200086318631863145298210000041084108E0
:1039300000000000821000000000000000000000F5
:1039400000000000410841088210A210C318C318EB
:10395000C318610800000000000020004108610851
:103960008210A210A210C318A2108210A210A310DD
:103970004108000000000000010021084208420840
:103980004108410842084108410021002000200070
:103990002100410041082000610861088210E418FC
:1039A000E3184108410862088208820882088208F8
:1039B0008210821082108210821082108210821077
:1039C00082108210A310A310A310A310A310A310A1
:1039D000A310A310A31082106208620841084100DE
:1039E000210041004108210041082100000062102F
:1039F000252145294529452945294529452945297F
:103A00004529652965294529452945294529452906
:103A1000452965296529652965298631E739494A96
:103A2000CB5A2C636D6B4C6B2C630B63AA52EB5A15
:103A30000C63CB5AEB5AEB5A0C630B63EB5A0B5BE0
:103A4000EB5AEB5A6D6B8E6B694AE41841084108DA
:103A5000C310C3108210A310A310A310A3108310CF
:103A600083108310831083108310821082108310C0
:103A7000821082086208410821004108410841087B
:103A80004108410041084108410841082000200048
:103A900041084108410841088210C318C318A21008
:103AA00061082000000041086108610841084108E0
:103AB000410861084108410861086108410841085E
:103AC0008210821082108210610861084108200073
:103AD000200020002000200000004108000082108B
:103AE000E739694A694A694A2842494A694A0842A3
:103AF00024214108000041082000000000000000CF
:103B000000000000000000000000000000000000B5
:103B10000000000000002000200020002000200005
:103B20002000000000002000200000000000000035
:103B30000000000000000000000000000000000085
:103B40000000000000000000000000000000000075
:103B500000000000000000002000200020002000E5
:103B6000200020004108200020002000000000006C
:103B70000000000000002000200020000000821053
:103B80004529C739A6318631A631C739E739A6316B
:103B9000A210000061082421E739863165298631A9
:103BA00086318631863104214108200041086108B0
:103BB000200020006108000000000000000000005C
:103BC00000000000410841086108A210C318042148
:103BD0000421A21061082000200000000000200045
:103BE00061088210A210A21082108210A210C318C5
:103BF000821041082100000000002108420842080C
:103C000041084108620841084108210020002000C5
:103C1000200000000000200061086208E318662907
:103C200066298210410041006208821082108210D1
:103C300082108210820882108210821082108210FC
:103C400082108210A310A310A310A310A310A3101E
:103C5000A310A310A310821082106208620841080A
:103C6000410841086208620841084108210021001A
:103C700021000000010020002000000000000000E2
:103C80000000000000000000000000000000000034
:103C9000000000000000000000000000200061089B
:103CA000E318863128428A520C636D6BCB5A0B6342
:103CB000EB5AEB5AEB5AEB5A2C630B63EB5A4D6BF6
:103CC0004D6B0B5BEB5A8E732C6328420421620808
:103CD0006208C310C310A310A310A310A310A31055
:103CE000A31083108310831083108210821083101E
:103CF00083108210620841082100410841084100F8
:103D0000410841004100410841084108410841087B
:103D100041084108210041088210C31804210421F0
:103D2000C3186108000020002000410882108210A2
:103D30004108610861088210A210C318821061084E
:103D400082108210A210821082106108410841087E
:103D5000200020002000200000002000000041087A
:103D60006529494AAA52694A694A694A2842694A00
:103D7000E739C31800002000000000000000000028
:103D80000000000000000000000000000000000033
:103D90000000000000000000000000000000000023
:103DA0000000000000000000000000000000000013
:103DB00000000000000000000000000020000000E3
:103DC00000000000000000000000000000000000F3
:103DD00000000000000000000000000000000000E3
:103DE00000000000000000000000000000000000D3
:103DF0000000000000000000000000004108A631A3
:103E00002842E739C739C739A631A63108426529A2
:103E100061082000C3186529C739863165298631B4
:103E20008631A63165298210200041084108200012
:103E300020004108410800000000000000000000D0
:103E4000000020004108410861088210A210C31838
:103E5000C318C318A21082106108200000000000DF
:103E600020004108610861084108410861086208B2
:103E700082108210410800000100210862086208D7
:103E80004108410862084108410821002000000063
:103E9000000000000000210041084108C318C73994
:103EA0000842242182104108620882108210821088
:103EB0008210821082108210821082108210821072
:103EC00082108210A310A310A310A310A310A3109C
:103ED000C310A310A310A3108210821082108210AE
:103EE00062088210A31021006208A31082106208E9
:103EF000410821088210821062106208620862087C
:103F00006208620862086208620862086208620861
:103F1000620841084108410820000000000000003C
:103F2000000000002000E318C639494AEB5A2C6310
:103F30002C634C6B0B630B632C632C630B5B0B5B75
:103F40002C632C630B5B2C634D6B2C632842042188
:103F50004100C318A310A310A310A310A310A31013
:103F6000A310831083108310831083108310831099
:103F70008310821082084108210041084108210075
:103F80004100400041004008410841084108410803
:103F90004108410841086108A210E318242145297D
:103FA00045290421821041080000000041086108F1
:103FB0004108610861088210A210C31882108210A3
:103FC000A210A210A210821082106108610841089C
:103FD00041082000200041082000000000002000CF
:103FE000C318E7398A52494A494A694A28428A52DB
:103FF0008A526529200020008210E3180421E3186A
:104000000421E318C318E318E318E318E318E318CE
:10401000E318E318E31804210421042104210421F6
:10402000E318E318E318E318E318E318E318E318B8
:10403000E318E318E318E318E318E318E318E318A8
:10404000E318E318E318E318E318E318E318E31898
:10405000C318C318C318E318C318A210A210C318BA
:10406000C318A210A210A210C318C318C318C318F3
:10407000C318A210A2108210A210C318452908422A
:104080000842C739E7390842E739A631A631C318D3
:104090002000A2106529C739C739A631A63186315B
:1040A000A631C739452920000000610841080000F9
:1040B0002000410820000000000000000000200057
:1040C000000020004108410861088210A210A210DF
:1040D00082108210C318C318A210610820000000CB
:1040E000000020002000200020002000000021000F
:1040F0008210A31061080100010021086208620813
:104100004108410862084108410020000000000009
:10411000000000000000000020000000A310E739AC
:10412000694AA6312421620862088208821082103E
:10413000820882088210A31082108210A310A3109C
:10414000A310A310A310A310A310A310A310C310B7
:10415000C310C310C310C318A3108210A310A31060
:10416000A310A310A31041086208A310A310A3106A
:10417000C318821083108210821082108210821065
:104180008210821082108210621062086208620837
:1041900062086208620861086108610861086108D4
:1041A000400000000000000020002000E7398A5293
:1041B0004C6B8E732C63CB5A0B636D6B6C6B0B5B10
:1041C000EB5A0B5B2C630C632C638E6BCB5A8631E2
:1041D0002100C3188210A310A310A310A310A310D2
:1041E000A31083108308A310831083088310831007
:1041F00083108210820841082100410841002100FB
:1042000041004000400020004008410820002000FC
:104210002000410841086108C318E318042145291A
:10422000863186314529C318610820000000410805
:1042300041088210610861088210A2108210A21049
:10424000C3188210821082108210821061086108E7
:1042500041084108200041084108000020000000FA
:104260006108A631694A494A494A694A2842694A65
:104270008A52C739821000002421494AAA52694A49
:10428000694A8A52AA52694A694A694A694A694A24
:10429000694A694A8A52694A694A694A694A694A5D
:1042A000694A8A528A528A528A528A528A528A5257
:1042B0008A528A528A52694A694A8A52694A694AC2
:1042C000694A694A694A694A694A694A694A694A56
:1042D000694A694A694A694A694A494A494A2842CF
:1042E000494A494A694A494A494A494A2842284268
:1042F000284208420842E739C739E7390842C73936
:104300000842E739E73908420842A6314529410801
:1043100020000421A631E739A631C739A631A631DC
:10432000C739C739042120000000610820000000BF
:10433000410861080000000020002000000000008B
:10434000000000002000610861088210A210A21085
:10435000410841088210C318A2108210821041083F
:1043600020000000000000002000200020002000AD
:104370008210A21062082100000021006208420899
:104380004108410842084108410020002000200067
:10439000200020002000410800000000A310A631EA
:1043A000494AE839A631E418820841008208A3107E
:1043B00062086208A310A210A310A310A310A310F8
:1043C000A310A310A310A310A310A310A310A31055
:1043D000A310A310A310A310A310A310A310A31045
:1043E000A310A310A310C310C318A310A310C318C5
:1043F000C318E418C318A310A310A310C310C31844
:10440000A310A310C318A310A310A310831082102D
:10441000831083108310820862084108410041081C
:104420006108410820002000000000002000E3187F
:1044300028420C63AE734D6B0C630C632C630C63EE
:104440002C63EB5A4D6B4D6B2C634D6B2D634942C6
:10445000042161086208C310C3108308A310C418A4
:104460008308A310830883088308830883088310C4
:10447000A31083106210420821004108410841083E
:1044800041082000200020004000400820002000BB
:1044900020004108410841088210C318E318242174
:1044A00086316529452924212421A2106108200094
:1044B000000041088210821082108210A210A21007
:1044C000A2106108821082108210610861086108E0
:1044D00041082000200041080000000061080000A1
:1044E00000000421494AAA52494A494A694A694A8C
:1044F0008A52694AA63120002000C739AA52AA521E
:10450000AA528A52EB5ACB5ACB5A8A52AA52CB5A47
:10451000AA52AA52AA52AA52AA52AA52AA52AA52BB
:10452000AA52AA52AA52CB5ACB5ACB5ACB5ACB5ADE
:10453000CB5AAA528A52AA528A52694A694A694A8D
:10454000694A8A528A52694A694A694A694A694A81
:10455000694A694A494A494A494A494A494A494A83
:104560002842494A494A494A2842284208420842C0
:1045700008422842284228422842E7392842C739BF
:1045800028420842C739C7392842C739A21020003B
:1045900004218631C739C739A631C739A6318631DA
:1045A000A6316529821041084108410820002000F9
:1045B00061086108000000002000200000000000E9
:1045C00000000000200061086108A210C318A210BA
:1045D00041080000410861088210C318C318A210E6
:1045E0004108000000000000200041086108410867
:1045F000A310A310620801000000410862106208C5
:1046000041084108620841084100200020002000C4
:1046100000000000200061080000000082108631C8
:104620004942083AE739A731E41841006208A3106B
:10463000C310A3108208820882088208A310A31066
:10464000A310A310A310A310A310A310A310A310D2
:10465000C310C310C310A310A310C310C310C318FA
:10466000C318C310A310C318E418C318C318A310A9
:104670008210A310C318C318E418E418E418E4184F
:10468000E418E418E418E418C418C318C418C418CB
:10469000C418A310A310A3108210610841004100A8
:1046A0004100610841002100410061082000000034
:1046B00041084529AA52CF7B8E73CB5A0C632C63D9
:1046C0002C634D6B2C634D6B2C636E6B6D6BCB5AF7
:1046D000C739A2104108C310C310A310A310C410FF
:1046E0008310A3108308A308A308830883088310FA
:1046F000A310831082104208210841084108410894
:104700002000200020004008400020002000610818
:1047100061086108410861086108C3186529A6316C
:104720002421C3188210242165296529E318610812
:104730000000200041086108410841086108A210FA
:10474000A210821082108210821061086108610834
:1047500061082000200020004108000041082000DE
:104760000000C318C739694A8A522842494A8A5206
:10477000AA528A52084204210000C3180842CB5AA8
:10478000AA52E739494AEB5AAA52694A694A8A52F7
:104790008A528A52AA52AA52AA52AA52AA52AA5279
:1047A000AA52AA52AA52AA52AA52AA52AA52AA5229
:1047B000AA528A528A528A528A528A528A528A52F9
:1047C0008A528A52694A694A694A694A694A694AFF
:1047D000694A494A494A494A694A694A694A694AA1
:1047E000694A494A494A284208420842084228423E
:1047F000084208422842494A084208422842A63153
:104800002842C739A6312842284204214108000025
:104810006529A631A631E739C7398631A631C739AE
:104820004529A2102000200061086108410800000D
:104830004108610820000000200020000000000066
:1048400000000000200061086108A210C318C3180E
:1048500041080000000020006108C318E318E318B5
:104860008210410820000000410841084108410829
:10487000A210A31062082100000041088210620803
:104880006208420862084108210020000000000080
:104890000000000000004108200000008210863166
:1048A00029420842294249426629A3108208820807
:1048B0008208A310A310820882088208A310A31004
:1048C000A310A310A310A310A310C310C310A31010
:1048D000C310C318C318C318C318C318C310A31038
:1048E000A310A310A310A310A31082106208A3109A
:1048F000C318A310A310E418E418E418C318C318CD
:10490000E418E418C318E41804210421E418C418B6
:10491000E418E418C318C318A310A210A210820848
:10492000620861084100410041004100210021006E
:1049300000002000E318AA52AE736D6B6D6B4D6BD7
:104940004C6B4D6B2C632C630C636E6B6E6B2D6329
:104950008A4AC3184108C310E418C310A310C41036
:10496000A310C310A308A308A308A310A3088310CF
:10497000A310831082104208210841084108410811
:10498000410820002000400820002000200061088D
:10499000A210A210821061088210A210452986314F
:1049A0002421A2102000A2100421652945292421D8
:1049B000E31882106108000020004108610882109D
:1049C0008210821082108210821082108210821057
:1049D000610841082000200041080000000020007C
:1049E00000002000E318C739AA52694A694A8A526E
:1049F000694AAA528A52694A610800002421694A18
:104A00000C63AA52694A694A694A494A494A494A69
:104A1000494A694A8A528A52AA528A528A528A5208
:104A20008A528A528A528A528A528A528A528A52A6
:104A3000694A694A694A8A528A528A52AA52AA52D1
:104A40008A528A528A528A528A528A528A528A5286
:104A50008A52694A694A494A694A694A494A494AF5
:104A60002842284208420842494A494A694A694A52
:104A700028422842494A494A0842084208422842F4
:104A80002842A631E739494AA631410800002421CD
:104A900028420842C739C739C7398631E739C7398B
:104AA0000421410800002000610882104108000034
:104AB00020006108410800002000200000000000E4
:104AC00000000000200041086108A210E318E3186C
:104AD000821020000000200020006108A210E318CE
:104AE000C318A2108210821082106108610882101F
:104AF000A310A21082102100000041086208620881
:104B000062106208620841082100200000000000D5
:104B1000000000000000200000000000A210A631EC
:104B200049420842494A494AE83986290419620833
:104B300041008208C310A31082088208A310C3108A
:104B4000A310A310C310A310A310C310C310A3106D
:104B5000C310C318C318E418C318C318C310C3186C
:104B6000C318C318E418A3108210A310A310C3180D
:104B7000C318A31004210419E418C318C318C318D8
:104B8000C318E41804190421252125210421E4185F
:104B90000521E418E418C318C318C310E418C3109F
:104BA000820841004100410021000000000041084E
:104BB000210000002000E318EB5ACE7B6D6B2C63C4
:104BC0002C632C636D6B4D6B0C632C636D6B6E6B88
:104BD0000C6345296208A310C418C410A310C410A4
:104BE000A310C310A310A308A308A310A308831045
:104BF000A3108310621042082108410841084108AF
:104C00004108410841084000400040084008610850
:104C10008210C318E318E318E318C318E3184529F2
:104C20002421C3180000000020008210C318452969
:104C300065290421A2104108410861086108610842
:104C400061088210821082108210821082108210FD
:104C500061084108410841082000000000004108A7
:104C600020000000410824218A52CB5A694A8A5206
:104C7000AA52AA528A52EB5A86316108410804218D
:104C8000694A4D6BCB5A8A52EB5A0C63EB5AEB5A7A
:104C9000EB5A0C630C630C630C630C63EB5AEB5A1A
:104CA0000C630C63EB5AEB5AEB5AEB5AEB5AEB5A88
:104CB000EB5ACB5ACB5ACB5ACB5ACB5ACB5ACB5AAC
:104CC000AA52AA52AA52CB5ACB5ACB5ACB5ACB5A37
:104CD000AA52AA52AA52CB5ACB5ACB5AAA528A5299
:104CE0008A528A528A52AA528A522842084228423A
:104CF0002842284228422842494A28422842694AF2
:104D00002842494A494A86318210000061082842F7
:104D1000284228422842E739C73908422842452913
:104D2000821020002000410861086108410820002D
:104D30004108410841080000200020000000000058
:104D4000000000002000410861088210C318E31829
:104D5000A210410820002000000020006108A210DD
:104D6000C318E318E318E318C318C318E318E418CA
:104D7000C318821041080100010062088210620815
:104D8000620862086208410821002000000000005B
:104D9000000000000000200000000000A310C73940
:104DA000494A083A494A494A6A4A49428629A31067
:104DB000620882088310A31083108310A310C3100D
:104DC000A310A310C310C310C310C310C310C3108B
:104DD000C310C318C318C318C318C310A310A3105B
:104DE000A310A310A310A310A310C318A310821024
:104DF000620841088210C318A310A210A210C318A1
:104E000004190421042125210421E4180421052189
:104E10000419E418E418E418C318C418E418C310FB
:104E20008208620862084100210021002000000081
:104E3000200041082000200085312C636D6B6D6BD4
:104E40004D6B4D6B8D736D6B6D6B4D6B6D6B8E73B1
:104E50006D6B0842A310A310C310C410A310C4109C
:104E6000A310C310A310A310A310A310A310A3108A
:104E7000A31083106210410821004108410820005E
:104E80004108200020004000610841084008410816
:104E90008210E318452945292421C31804216529D6
:104EA0004529E3184108000000000000200082109E
:104EB000E318E31804210421C3186108200020002E
:104EC0002000821082108210821082108210A210A4
:104ED00082106108410841082000200000002000E5
:104EE0004108200000004108E739EB5A694A8A521C
:104EF0008A528A528A52EB5AEB5AA631610841080B
:104F00006529CB5AAA528A52CB5AEB5ACB5ACB5A62
:104F1000CB5ACB5ACB5ACB5ACB5AAA52AA52CB5ABB
:104F2000CB5ACB5ACB5ACB5ACB5ACB5ACB5ACB5A59
:104F3000CB5ACB5ACB5AEB5AEB5AEB5ACB5AAA5212
:104F4000AA52AA52AA52AA52AA52AA528A528A52C1
:104F50008A528A52694AAA52AA528A528A528A525A
:104F60008A528A528A52694A494A2842494A694AB7
:104F7000694A28422842694A28422842E739C73903
:104F8000494AAA52A631821000006108A631E739C9
:104F9000E7392842494AE739A6312842E739E31878
:104FA0004108410882106108410841084108410850
:104FB0004108410841080000000000000000000016
:104FC0000000000000002000200041088210A21014
:104FD00082104108200020002000200041084108E4
:104FE0006108A210E318E318E318C318C318E31804
:104FF0008210410821000000210082108210620806
:105000006208620862084108410020002000200078
:10501000000020002000200020000000A310C7395D
:10502000694A08424942494A6A4A8A4A29426629E3
:10503000A3108208A310C310A310A310C310C310A1
:10504000A310A310C310C310C310C310C310C31800
:10505000C318C318C318E418C318A310A3108210F0
:105060006208620841086208620862084108410853
:1050700041084108410841004108410041008208BF
:10508000C318C3188210C318E41804210419E418C3
:1050900004210421E418E418C418E418E418E418FE
:1050A000A310820882088208610841086108210073
:1050B000200061082000000041082842CF7BEF7BE0
:1050C0006D6B8D734D6B6D6BAE736D6B6D6B8E73A6
:1050D000AF73CB5AA3108208A310C310A310C4103F
:1050E000A310C310A310C310C310A310A310A310C8
:1050F000A3108310821042082100410841082000BB
:1051000041082000200040084108400820004108D4
:10511000A21024218631A631863145296529A63180
:1051200086312421A21082108210821041082000B2
:1051300041088210042145292421E318821020000F
:105140000000A210A210A210A21082108210A210C1
:1051500082106108610841084108821000000000C7
:10516000410841080000410882102842CB5AAA5247
:105170008A52AA528A528A524D6B8A52452920007D
:105180000000C318E318A210C318C318E318E318EB
:10519000C318C318C318C318C318C318C318C31837
:1051A000E318E318E318E31804210421E318E318D3
:1051B000E318E3180421042104210421E318E3186F
:1051C000E318E318E318C318C318C318C318A210D0
:1051D000A210A210A210A210A210A210A210C31816
:1051E000A2108210610861088210E318863108421B
:1051F00028422842284228422842694A494AE73937
:105200002842A631C318000061086529694AE739B8
:10521000084228420842E739084208420421821025
:1052200041084108821061084108410841086108AD
:105230004108410861080000000000000000000073
:105240000000000000002000200020002000410895
:1052500061084108410841084108410841084108E6
:10526000410841088210A210A210A2106108821009
:105270006108410841080000210082108210620884
:1052800062106210620861084108210020002000BD
:10529000200020002000400020000000A210C7399C
:1052A0006A4A2842494A494A494A6A4A8A4A294234
:1052B0004521A310A310C310A310A310C310C31043
:1052C000C310C310C310C310C310C310C310C3183E
:1052D000C418C318C318C318A310A31082108208DF
:1052E000620862086208821021000000210041006B
:1052F0006108C318E318E41804210421042145219E
:1053000066294521E418E418E4180419E418E4189F
:10531000042104210421E418E418E41805190519EE
:10532000C418A3108310A31082084108410820006C
:1053300000004108410800000000E3180B638D7372
:105340006C6B6D6B6D6BAE736D6B4D6B4D6B8E736C
:10535000F07B6E6BC31882088310A310A310C410D7
:10536000A310A310A310A310C310A310A310A31085
:10537000A310831082104108200021004108200062
:105380004108200041084108400820002000410851
:10539000A21024218631C739C739A631A631A631DA
:1053A000C73986312421452945292421E318A21033
:1053B000410861088210042145294529E318610844
:1053C0000000A210A210A210A2108210A210A2101F
:1053D00082106108610861086108A21020000000C5
:1053E0006108410841082000000086310C63AA5280
:1053F000494AAA520C6308428A52CB5A694A04218C
:105400002000000041080000000000000000000033
:10541000000000000000000000000000000000008C
:10542000200020000000000000000000000020001C
:10543000200000000000000000000000000000004C
:10544000000000000000000000000000000000005C
:10545000000000000000000000000000000000004C
:10546000000000000000200041080421E739694ADB
:105470008A528A522842694A494A28428A52EB5A39
:10548000E73961080000610845292842494A284255
:1054900028420842E739494A494A863161084108A9
:1054A00041082000200061086108410841086108A6
:1054B00041082000610800002000200000002000BA
:1054C000200000002000200020000000000020003C
:1054D0002000200041084108200020004108410828
:1054E0004108200020002000410841080000210060
:1054F00020002000200041082100420862086208C4
:1055000082108210620861084108210021002100F8
:10551000200020002100400000000000A210C73938
:105520008A52494A694A494A6A4A4A4A8A4AAB52AD
:10553000083AE4186208A310C310C310C310C310C4
:10554000C310C310C310C310C310C310C310C318BB
:10555000C418C318C318C310A310820862084108F6
:10556000410862086208210041080000200004216F
:10557000CB5AAE73EB5A0C630C5BEC5A0C632D6385
:105580002D63EC5AAB526629A3106208C41805219A
:10559000C318A310E418E418E418E418E418E41895
:1055A000C418A310A310A3108310410841004108A0
:1055B000410841080000200020000000C6392C638B
:1055C000CE7B4D6B8D73AE736D6BAE738E738E6BC6
:1055D000CF7BAF73862982088208A310A310C41062
:1055E000A310A310A310A308A310A310A310A3102B
:1055F000A310831082102108000020002100200049
:10560000410841084108610861084008200041083C
:10561000A210042145292421242145294529652951
:10562000A631863186318631A631863186316529AB
:1056300024210421E318E31824214529E3188210CA
:105640000000A210A210A210A2108210A210A2109C
:105650008210610882106108200082102000200062
:10566000410800004108200000002000C739EB5A23
:105670000C63694A694AEB5AAA52CB5ACB5AAA52CE
:105680008631000000002000821061080000000048
:1056900020004108000000002000200020004108F8
:1056A0006108610861084108410841086108610812
:1056B0008210610861086108410841082000410822
:1056C000410841084108200020002000200020005F
:1056D00000000000000000000000000000000000CA
:1056E00000006108C31886310842AA528A52084253
:1056F000494AAA52AA52694A8A52694A0842284229
:10570000410800008210452908428A52694A28420D
:10571000494A084208422842C739821041086108B4
:1057200041084108610861086108410841086108B1
:1057300041084108610800002000200020002000EE
:105740002000200020002000200020002000200059
:105750002000200020000000200020002000200069
:105760002000200041082000200020000000000050
:105770000000000041088210821082106208620856
:1057800062086208620862084108410021002000A6
:10579000200020002000400000000000A210C739B7
:1057A000AA52694A494A49426A4A6A4A6A4ACB52F3
:1057B0004942041962088310C418C310C310C310EF
:1057C000C310C310C310C310C310C310C310E41818
:1057D000E418E418C418A310A31082086208410852
:1057E0004108410841080000410020002000242118
:1057F0000C5B0F7C2C636D6B6D6B6E6B6D6B6E6BEE
:105800008E736E6B6D6BAB52A731C318A31045211D
:10581000452104190521E418E418E418E418E418F3
:10582000C418C410A310A310A3106208A310200072
:10583000610861080000410841080000E318CB5AE4
:10584000AE736D6BAD738E738D738E738E736E6B63
:105850006E6BF07BA73183106208A310C410C310D5
:10586000C310C310A3108308A308C310A310831090
:10587000A3108310621021080000200021002000E6
:105880004108410841084108400840086108821069
:10589000C318E318E318A210A210C3186529E7394A
:1058A000A631652924210421452986318631863196
:1058B0008631A6316529242145294529042141083D
:1058C00000008210C318A210A210A210A210A210F1
:1058D00082108210610841084108410841084108CE
:1058E0002000200000000000410800008210084253
:1058F000CB5AEB5A8A528A52CB5AEB5ACB5ACB5AD2
:10590000694A45292000000000004108610861083B
:105910000000000000000000000000000000000087
:1059200000000000000000002000410841082000A5
:105930004108821082108210A210C31882106108E0
:105940006108610861084108410841082000200001
:105950002000200020004108410800000000000055
:1059600061084529694AAA52AA528A52694A8A524A
:105970008A52694A2842494A8A52494A8631200055
:105980000000410824210842694A694A2842084225
:105990002842494A494AE739242120002000610869
:1059A00041086108821061084108610861086108C6
:1059B000610841084108200020002000000000008C
:1059C00000000000200000002000410841084108BC
:1059D0002000000000002000200020002000200007
:1059E0000000000000000000000020002000210056
:1059F0002000410862088210831082106208420869
:105A00004108620862086108410821002100200065
:105A1000200020002000400000000000A210C73934
:105A2000AA52694A694A494A6A4A6A4A6A4ACB5248
:105A30004942E4186208A310E418C310E418C31024
:105A4000C418C418E418C310C418C418C418E4183F
:105A5000E418E418C318A310A310820862086208AF
:105A600041084100210020002100000020002421E5
:105A7000EB5AEF7B2C632C634D6B6D6B6D6B4D6B39
:105A80006E6B8E73AF73AF73CB5A8631C318C31866
:105A9000E418252125210521C418E4180519E41866
:105AA000C310C310E418A310A3108208A310210090
:105AB0004108410820004108610800004008484AA8
:105AC000AE73AD73AE736D6B6D6B6D6B8E738E73EA
:105AD0008E73CF73A731A3106208A310C310A31055
